{
  "contractName": "AVAXFlashBorrower",
  "abi": [
    {
      "anonymous": false,
      "inputs": [
        {
          "indexed": true,
          "internalType": "address",
          "name": "previousOwner",
          "type": "address"
        },
        {
          "indexed": true,
          "internalType": "address",
          "name": "newOwner",
          "type": "address"
        }
      ],
      "name": "OwnershipTransferred",
      "type": "event"
    },
    {
      "inputs": [],
      "name": "avaxFlashLender",
      "outputs": [
        {
          "internalType": "contract AVAXFlashLender",
          "name": "",
          "type": "address"
        }
      ],
      "stateMutability": "view",
      "type": "function"
    },
    {
      "inputs": [],
      "name": "owner",
      "outputs": [
        {
          "internalType": "address",
          "name": "",
          "type": "address"
        }
      ],
      "stateMutability": "view",
      "type": "function"
    },
    {
      "inputs": [],
      "name": "renounceOwnership",
      "outputs": [],
      "stateMutability": "nonpayable",
      "type": "function"
    },
    {
      "inputs": [
        {
          "internalType": "address",
          "name": "newOwner",
          "type": "address"
        }
      ],
      "name": "transferOwnership",
      "outputs": [],
      "stateMutability": "nonpayable",
      "type": "function"
    },
    {
      "inputs": [
        {
          "internalType": "address",
          "name": "token",
          "type": "address"
        },
        {
          "internalType": "uint256",
          "name": "amount",
          "type": "uint256"
        }
      ],
      "name": "borrow",
      "outputs": [],
      "stateMutability": "nonpayable",
      "type": "function"
    },
    {
      "inputs": [
        {
          "internalType": "address",
          "name": "token",
          "type": "address"
        },
        {
          "internalType": "uint256",
          "name": "amount",
          "type": "uint256"
        },
        {
          "internalType": "uint256",
          "name": "debt",
          "type": "uint256"
        }
      ],
      "name": "executeOnAVAXFlashLoan",
      "outputs": [],
      "stateMutability": "nonpayable",
      "type": "function"
    }
  ],
  "bytecode": "0x608060405234801561001057600080fd5b5060006100216100c460201b60201c565b9050806000806101000a81548173ffffffffffffffffffffffffffffffffffffffff021916908373ffffffffffffffffffffffffffffffffffffffff1602179055508073ffffffffffffffffffffffffffffffffffffffff16600073ffffffffffffffffffffffffffffffffffffffff167f8be0079c531659141344cd1fd0a4f28419497f9722a3daafe3b4186f6b6457e060405160405180910390a3506100cc565b600033905090565b610a88806100db6000396000f3fe608060405234801561001057600080fd5b50600436106100625760003560e01c80634b8a352914610067578063715018a614610083578063740b40e91461008d57806387806593146100ab5780638da5cb5b146100c7578063f2fde38b146100e5575b600080fd5b610081600480360381019061007c919061070a565b610101565b005b61008b61021b565b005b61009561036e565b6040516100a29190610915565b60405180910390f35b6100c560048036038101906100c09190610746565b610386565b005b6100cf6104af565b6040516100dc91906108d1565b60405180910390f35b6100ff60048036038101906100fa91906106e1565b6104d8565b005b61010961069a565b73ffffffffffffffffffffffffffffffffffffffff1660008054906101000a900473ffffffffffffffffffffffffffffffffffffffff1673ffffffffffffffffffffffffffffffffffffffff1614610196576040517f08c379a000000000000000000000000000000000000000000000000000000000815260040161018d90610970565b60405180910390fd5b73a1ba1e7dd7ad2c72a25650ceecaa617319d5cffb73ffffffffffffffffffffffffffffffffffffffff1663780eacf983836040518363ffffffff1660e01b81526004016101e59291906108ec565b600060405180830381600087803b1580156101ff57600080fd5b505af1158015610213573d6000803e3d6000fd5b505050505050565b61022361069a565b73ffffffffffffffffffffffffffffffffffffffff1660008054906101000a900473ffffffffffffffffffffffffffffffffffffffff1673ffffffffffffffffffffffffffffffffffffffff16146102b0576040517f08c379a00000000000000000000000000000000000000000000000000000000081526004016102a790610970565b60405180910390fd5b600073ffffffffffffffffffffffffffffffffffffffff1660008054906101000a900473ffffffffffffffffffffffffffffffffffffffff1673ffffffffffffffffffffffffffffffffffffffff167f8be0079c531659141344cd1fd0a4f28419497f9722a3daafe3b4186f6b6457e060405160405180910390a360008060006101000a81548173ffffffffffffffffffffffffffffffffffffffff021916908373ffffffffffffffffffffffffffffffffffffffff160217905550565b73a1ba1e7dd7ad2c72a25650ceecaa617319d5cffb81565b73a1ba1e7dd7ad2c72a25650ceecaa617319d5cffb73ffffffffffffffffffffffffffffffffffffffff163373ffffffffffffffffffffffffffffffffffffffff1614610408576040517f08c379a00000000000000000000000000000000000000000000000000000000081526004016103ff90610950565b60405180910390fd5b8273ffffffffffffffffffffffffffffffffffffffff1663095ea7b373a1ba1e7dd7ad2c72a25650ceecaa617319d5cffb836040518363ffffffff1660e01b81526004016104579291906108ec565b602060405180830381600087803b15801561047157600080fd5b505af1158015610485573d6000803e3d6000fd5b505050506040513d601f19601f820116820180604052508101906104a99190610795565b50505050565b60008060009054906101000a900473ffffffffffffffffffffffffffffffffffffffff16905090565b6104e061069a565b73ffffffffffffffffffffffffffffffffffffffff1660008054906101000a900473ffffffffffffffffffffffffffffffffffffffff1673ffffffffffffffffffffffffffffffffffffffff161461056d576040517f08c379a000000000000000000000000000000000000000000000000000000000815260040161056490610970565b60405180910390fd5b600073ffffffffffffffffffffffffffffffffffffffff168173ffffffffffffffffffffffffffffffffffffffff1614156105dd576040517f08c379a00000000000000000000000000000000000000000000000000000000081526004016105d490610930565b60405180910390fd5b8073ffffffffffffffffffffffffffffffffffffffff1660008054906101000a900473ffffffffffffffffffffffffffffffffffffffff1673ffffffffffffffffffffffffffffffffffffffff167f8be0079c531659141344cd1fd0a4f28419497f9722a3daafe3b4186f6b6457e060405160405180910390a3806000806101000a81548173ffffffffffffffffffffffffffffffffffffffff021916908373ffffffffffffffffffffffffffffffffffffffff16021790555050565b600033905090565b6000813590506106b181610a0d565b92915050565b6000815190506106c681610a24565b92915050565b6000813590506106db81610a3b565b92915050565b6000602082840312156106f357600080fd5b6000610701848285016106a2565b91505092915050565b6000806040838503121561071d57600080fd5b600061072b858286016106a2565b925050602061073c858286016106cc565b9150509250929050565b60008060006060848603121561075b57600080fd5b6000610769868287016106a2565b935050602061077a868287016106cc565b925050604061078b868287016106cc565b9150509250925092565b6000602082840312156107a757600080fd5b60006107b5848285016106b7565b91505092915050565b6107c7816109a1565b82525050565b6107d6816109e9565b82525050565b60006107e9602683610990565b91507f4f776e61626c653a206e6577206f776e657220697320746865207a65726f206160008301527f64647265737300000000000000000000000000000000000000000000000000006020830152604082019050919050565b600061084f602083610990565b91507f6f6e6c79206c656e64657220636f6e74726163742063616e20657865637574656000830152602082019050919050565b600061088f602083610990565b91507f4f776e61626c653a2063616c6c6572206973206e6f7420746865206f776e65726000830152602082019050919050565b6108cb816109df565b82525050565b60006020820190506108e660008301846107be565b92915050565b600060408201905061090160008301856107be565b61090e60208301846108c2565b9392505050565b600060208201905061092a60008301846107cd565b92915050565b60006020820190508181036000830152610949816107dc565b9050919050565b6000602082019050818103600083015261096981610842565b9050919050565b6000602082019050818103600083015261098981610882565b9050919050565b600082825260208201905092915050565b60006109ac826109bf565b9050919050565b60008115159050919050565b600073ffffffffffffffffffffffffffffffffffffffff82169050919050565b6000819050919050565b60006109f4826109fb565b9050919050565b6000610a06826109bf565b9050919050565b610a16816109a1565b8114610a2157600080fd5b50565b610a2d816109b3565b8114610a3857600080fd5b50565b610a44816109df565b8114610a4f57600080fd5b5056fea2646970667358221220ba68b866c45da0183ac7798d6745c8a2967fb41fba11531858e39a7c2ef9b50964736f6c634300060c0033",
  "source": "// SPDX-License-Identifier: MIT\npragma solidity ^0.6.8;\npragma experimental ABIEncoderV2;\n\nimport \"./AVAXFlashLender.sol\";\nimport \"../contracts/SafeMath.sol\";\nimport \"@openzeppelin/contracts/access/Ownable.sol\";\nimport \"@openzeppelin/contracts/token/ERC20/IERC20.sol\";\n\n\n// @notice Used by borrower to flash-borrow ERC20 tokens from ERC20FlashLender\n// @dev Example contract. Do not use. Has not been audited.\ncontract AVAXFlashBorrower is Ownable {\n    using SafeMath for uint256;\n    uint256 arbVal;\n\n    // set the Lender contract address to a trusted ERC20FlashLender\n    AVAXFlashLender public constant avaxFlashLender = AVAXFlashLender(address(0xa1Ba1E7dD7AD2C72A25650ceECaa617319D5Cffb));\n    uint256 constant internal ONE = 1e18;\n\n    \n    // @notice Borrow any ERC20 token that the ERC20FlashLender holds\n    function borrow(address token, uint256 amount) public onlyOwner {    \n       avaxFlashLender.AVAXFlashLoan(token, amount);\n    }\n\n\n    // this is called by ERC20FlashLender after borrower has received the tokens\n    // every ERC20FlashBorrower must implement an `executeOnERC20FlashLoan()` function.\n    function executeOnAVAXFlashLoan(address token, uint256 amount, uint256 debt) external {\n        require(msg.sender == address(avaxFlashLender), \"only lender contract can execute\");\n\n        //... do whatever you want with the tokens to generate profit\n        //assuming BTC as the entry point *BAND_ORACLE.getPrice(\"ETH\",\"SXP\")*BAND_ORACLE.getPrice(\"SXP\",\"BTC\")\n     \n        \n       \n        //since we are on a testnet with no liquidity the liquidity from lender is used for test purposes\n        //frontend will show a demo of the arbitrage value\n        \n        \n        // authorize loan repayment\n        IERC20(token).approve(address(avaxFlashLender), debt);\n    }\n}\n",
  "sourcePath": "/Users/VijayL/Documents/Blockchain/MyProjects/Encode_Club_hackathon/avalanche/truffle/contracts/AVAXFlashBorrower.sol",
  "compiler": {
    "name": "solc",
    "version": "0.6.12+commit.27d51765.Emscripten.clang"
  },
  "schemaVersion": "3.0.23",
  "updatedAt": "2021-02-02T21:09:20.388Z",
  "devdoc": {
    "kind": "dev",
    "methods": {
      "owner()": {
        "details": "Returns the address of the current owner."
      },
      "renounceOwnership()": {
        "details": "Leaves the contract without owner. It will not be possible to call `onlyOwner` functions anymore. Can only be called by the current owner. NOTE: Renouncing ownership will leave the contract without an owner, thereby removing any functionality that is only available to the owner."
      },
      "transferOwnership(address)": {
        "details": "Transfers ownership of the contract to a new account (`newOwner`). Can only be called by the current owner."
      }
    },
    "version": 1
  },
  "userdoc": {
    "kind": "user",
    "methods": {},
    "version": 1
  }
}